{
  "_format": "hh-sol-artifact-1",
  "contractName": "MedicalReport",
  "sourceName": "contracts/MedicalReport.sol",
  "abi": [
    {
      "inputs": [],
      "name": "getAccessList",
      "outputs": [
        {
          "internalType": "address[]",
          "name": "",
          "type": "address[]"
        }
      ],
      "stateMutability": "view",
      "type": "function"
    },
    {
      "inputs": [],
      "name": "getMyReports",
      "outputs": [
        {
          "components": [
            {
              "internalType": "string",
              "name": "cid",
              "type": "string"
            },
            {
              "internalType": "address",
              "name": "owner",
              "type": "address"
            }
          ],
          "internalType": "struct MedicalReport.Report[]",
          "name": "",
          "type": "tuple[]"
        }
      ],
      "stateMutability": "view",
      "type": "function"
    },
    {
      "inputs": [
        {
          "internalType": "address",
          "name": "patient",
          "type": "address"
        }
      ],
      "name": "getPatientReports",
      "outputs": [
        {
          "components": [
            {
              "internalType": "string",
              "name": "cid",
              "type": "string"
            },
            {
              "internalType": "address",
              "name": "owner",
              "type": "address"
            }
          ],
          "internalType": "struct MedicalReport.Report[]",
          "name": "",
          "type": "tuple[]"
        }
      ],
      "stateMutability": "view",
      "type": "function"
    },
    {
      "inputs": [],
      "name": "getReportsSharedWithDoctor",
      "outputs": [
        {
          "components": [
            {
              "internalType": "string",
              "name": "cid",
              "type": "string"
            },
            {
              "internalType": "address",
              "name": "owner",
              "type": "address"
            }
          ],
          "internalType": "struct MedicalReport.ReportInfo[]",
          "name": "",
          "type": "tuple[]"
        }
      ],
      "stateMutability": "view",
      "type": "function"
    },
    {
      "inputs": [
        {
          "internalType": "address",
          "name": "user",
          "type": "address"
        }
      ],
      "name": "getUser",
      "outputs": [
        {
          "internalType": "enum MedicalReport.Role",
          "name": "",
          "type": "uint8"
        }
      ],
      "stateMutability": "view",
      "type": "function"
    },
    {
      "inputs": [
        {
          "internalType": "address",
          "name": "doctor",
          "type": "address"
        }
      ],
      "name": "grantAccess",
      "outputs": [],
      "stateMutability": "nonpayable",
      "type": "function"
    },
    {
      "inputs": [
        {
          "internalType": "enum MedicalReport.Role",
          "name": "_role",
          "type": "uint8"
        }
      ],
      "name": "register",
      "outputs": [],
      "stateMutability": "nonpayable",
      "type": "function"
    },
    {
      "inputs": [
        {
          "internalType": "address",
          "name": "doctor",
          "type": "address"
        }
      ],
      "name": "revokeAccess",
      "outputs": [],
      "stateMutability": "nonpayable",
      "type": "function"
    },
    {
      "inputs": [
        {
          "internalType": "string",
          "name": "cid",
          "type": "string"
        }
      ],
      "name": "uploadReport",
      "outputs": [],
      "stateMutability": "nonpayable",
      "type": "function"
    },
    {
      "inputs": [
        {
          "internalType": "address",
          "name": "",
          "type": "address"
        }
      ],
      "name": "users",
      "outputs": [
        {
          "internalType": "enum MedicalReport.Role",
          "name": "role",
          "type": "uint8"
        }
      ],
      "stateMutability": "view",
      "type": "function"
    }
  ],
  "bytecode": "0x6080604052348015600f57600080fd5b506124d58061001f6000396000f3fe608060405234801561001057600080fd5b506004361061009e5760003560e01c806385e685311161006657806385e68531146101455780638d5ddbb314610161578063a87430ba1461017f578063aa7f95e3146101af578063e65a0691146101cd5761009e565b80630ae5e739146100a357806361d689fa146100bf578063681dbbbf146100db578063684b0834146100f95780636f77926b14610115575b600080fd5b6100bd60048036038101906100b891906117a0565b6101fd565b005b6100d960048036038101906100d491906117f2565b6104a6565b005b6100e36106ec565b6040516100f091906119bd565b60405180910390f35b610113600480360381019061010e9190611b14565b610870565b005b61012f600480360381019061012a91906117a0565b610a1a565b60405161013c9190611bd4565b60405180910390f35b61015f600480360381019061015a91906117a0565b610a72565b005b610169610cf1565b6040516101769190611c9e565b60405180910390f35b610199600480360381019061019491906117a0565b610e73565b6040516101a69190611bd4565b60405180910390f35b6101b7610e9e565b6040516101c49190611dbf565b60405180910390f35b6101e760048036038101906101e291906117a0565b611332565b6040516101f491906119bd565b60405180910390f35b6001600281111561021157610210611b5d565b5b6000803373ffffffffffffffffffffffffffffffffffffffff1673ffffffffffffffffffffffffffffffffffffffff16815260200190815260200160002060000160009054906101000a900460ff16600281111561027257610271611b5d565b5b146102b2576040517f08c379a00000000000000000000000000000000000000000000000000000000081526004016102a990611e3e565b60405180910390fd5b6002808111156102c5576102c4611b5d565b5b6000808373ffffffffffffffffffffffffffffffffffffffff1673ffffffffffffffffffffffffffffffffffffffff16815260200190815260200160002060000160009054906101000a900460ff16600281111561032657610325611b5d565b5b14610366576040517f08c379a000000000000000000000000000000000000000000000000000000000815260040161035d90611eaa565b60405180910390fd5b60008060003373ffffffffffffffffffffffffffffffffffffffff1673ffffffffffffffffffffffffffffffffffffffff168152602001908152602001600020600101905060005b818054905081101561043e578273ffffffffffffffffffffffffffffffffffffffff168282815481106103e4576103e3611eca565b5b9060005260206000200160009054906101000a900473ffffffffffffffffffffffffffffffffffffffff1673ffffffffffffffffffffffffffffffffffffffff16036104315750506104a3565b80806001019150506103ae565b5080829080600181540180825580915050600190039060005260206000200160009091909190916101000a81548173ffffffffffffffffffffffffffffffffffffffff021916908373ffffffffffffffffffffffffffffffffffffffff160217905550505b50565b600060028111156104ba576104b9611b5d565b5b6000803373ffffffffffffffffffffffffffffffffffffffff1673ffffffffffffffffffffffffffffffffffffffff16815260200190815260200160002060000160009054906101000a900460ff16600281111561051b5761051a611b5d565b5b1461055b576040517f08c379a000000000000000000000000000000000000000000000000000000000815260040161055290611f45565b60405180910390fd5b6001600281111561056f5761056e611b5d565b5b81600281111561058257610581611b5d565b5b14806105b1575060028081111561059c5761059b611b5d565b5b8160028111156105af576105ae611b5d565b5b145b6105f0576040517f08c379a00000000000000000000000000000000000000000000000000000000081526004016105e790611fb1565b60405180910390fd5b806000803373ffffffffffffffffffffffffffffffffffffffff1673ffffffffffffffffffffffffffffffffffffffff16815260200190815260200160002060000160006101000a81548160ff0219169083600281111561065457610653611b5d565b5b02179055506001600281111561066d5761066c611b5d565b5b8160028111156106805761067f611b5d565b5b036106e9576002339080600181540180825580915050600190039060005260206000200160009091909190916101000a81548173ffffffffffffffffffffffffffffffffffffffff021916908373ffffffffffffffffffffffffffffffffffffffff1602179055505b50565b6060600160003373ffffffffffffffffffffffffffffffffffffffff1673ffffffffffffffffffffffffffffffffffffffff168152602001908152602001600020805480602002602001604051908101604052809291908181526020016000905b82821015610867578382906000526020600020906002020160405180604001604052908160008201805461078090612000565b80601f01602080910402602001604051908101604052809291908181526020018280546107ac90612000565b80156107f95780601f106107ce576101008083540402835291602001916107f9565b820191906000526020600020905b8154815290600101906020018083116107dc57829003601f168201915b505050505081526020016001820160009054906101000a900473ffffffffffffffffffffffffffffffffffffffff1673ffffffffffffffffffffffffffffffffffffffff1673ffffffffffffffffffffffffffffffffffffffff16815250508152602001906001019061074d565b50505050905090565b6001600281111561088457610883611b5d565b5b6000803373ffffffffffffffffffffffffffffffffffffffff1673ffffffffffffffffffffffffffffffffffffffff16815260200190815260200160002060000160009054906101000a900460ff1660028111156108e5576108e4611b5d565b5b14610925576040517f08c379a000000000000000000000000000000000000000000000000000000000815260040161091c90611e3e565b60405180910390fd5b600160003373ffffffffffffffffffffffffffffffffffffffff1673ffffffffffffffffffffffffffffffffffffffff16815260200190815260200160002060405180604001604052808381526020013373ffffffffffffffffffffffffffffffffffffffff16815250908060018154018082558091505060019003906000526020600020906002020160009091909190915060008201518160000190816109cd91906121e7565b5060208201518160010160006101000a81548173ffffffffffffffffffffffffffffffffffffffff021916908373ffffffffffffffffffffffffffffffffffffffff160217905550505050565b60008060008373ffffffffffffffffffffffffffffffffffffffff1673ffffffffffffffffffffffffffffffffffffffff16815260200190815260200160002060000160009054906101000a900460ff169050919050565b60016002811115610a8657610a85611b5d565b5b6000803373ffffffffffffffffffffffffffffffffffffffff1673ffffffffffffffffffffffffffffffffffffffff16815260200190815260200160002060000160009054906101000a900460ff166002811115610ae757610ae6611b5d565b5b14610b27576040517f08c379a0000000000000000000000000000000000000000000000000000000008152600401610b1e90611e3e565b60405180910390fd5b60008060003373ffffffffffffffffffffffffffffffffffffffff1673ffffffffffffffffffffffffffffffffffffffff168152602001908152602001600020600101905060005b8180549050811015610cec578273ffffffffffffffffffffffffffffffffffffffff16828281548110610ba557610ba4611eca565b5b9060005260206000200160009054906101000a900473ffffffffffffffffffffffffffffffffffffffff1673ffffffffffffffffffffffffffffffffffffffff1603610cdf578160018380549050610bfd91906122e8565b81548110610c0e57610c0d611eca565b5b9060005260206000200160009054906101000a900473ffffffffffffffffffffffffffffffffffffffff16828281548110610c4c57610c4b611eca565b5b9060005260206000200160006101000a81548173ffffffffffffffffffffffffffffffffffffffff021916908373ffffffffffffffffffffffffffffffffffffffff16021790555081805480610ca557610ca461231c565b5b6001900381819060005260206000200160006101000a81549073ffffffffffffffffffffffffffffffffffffffff02191690559055610cec565b8080600101915050610b6f565b505050565b606060016002811115610d0757610d06611b5d565b5b6000803373ffffffffffffffffffffffffffffffffffffffff1673ffffffffffffffffffffffffffffffffffffffff16815260200190815260200160002060000160009054906101000a900460ff166002811115610d6857610d67611b5d565b5b14610da8576040517f08c379a0000000000000000000000000000000000000000000000000000000008152600401610d9f90611e3e565b60405180910390fd5b6000803373ffffffffffffffffffffffffffffffffffffffff1673ffffffffffffffffffffffffffffffffffffffff168152602001908152602001600020600101805480602002602001604051908101604052809291908181526020018280548015610e6957602002820191906000526020600020905b8160009054906101000a900473ffffffffffffffffffffffffffffffffffffffff1673ffffffffffffffffffffffffffffffffffffffff1681526020019060010190808311610e1f575b5050505050905090565b60006020528060005260406000206000915090508060000160009054906101000a900460ff16905081565b6060600280811115610eb357610eb2611b5d565b5b6000803373ffffffffffffffffffffffffffffffffffffffff1673ffffffffffffffffffffffffffffffffffffffff16815260200190815260200160002060000160009054906101000a900460ff166002811115610f1457610f13611b5d565b5b14610f54576040517f08c379a0000000000000000000000000000000000000000000000000000000008152600401610f4b90612397565b60405180910390fd5b6000805b60028054905081101561104e57610fad60028281548110610f7c57610f7b611eca565b5b9060005260206000200160009054906101000a900473ffffffffffffffffffffffffffffffffffffffff16336115b5565b15611041576001600060028381548110610fca57610fc9611eca565b5b9060005260206000200160009054906101000a900473ffffffffffffffffffffffffffffffffffffffff1673ffffffffffffffffffffffffffffffffffffffff1673ffffffffffffffffffffffffffffffffffffffff168152602001908152602001600020805490508261103e91906123b7565b91505b8080600101915050610f58565b5060008167ffffffffffffffff81111561106b5761106a6119e9565b5b6040519080825280602002602001820160405280156110a457816020015b6110916116fe565b8152602001906001900390816110895790505b5090506000805b600280549050811015611328576000600282815481106110ce576110cd611eca565b5b9060005260206000200160009054906101000a900473ffffffffffffffffffffffffffffffffffffffff16905061110581336115b5565b1561131a576000600160008373ffffffffffffffffffffffffffffffffffffffff1673ffffffffffffffffffffffffffffffffffffffff168152602001908152602001600020805480602002602001604051908101604052809291908181526020016000905b82821015611285578382906000526020600020906002020160405180604001604052908160008201805461119e90612000565b80601f01602080910402602001604051908101604052809291908181526020018280546111ca90612000565b80156112175780601f106111ec57610100808354040283529160200191611217565b820191906000526020600020905b8154815290600101906020018083116111fa57829003601f168201915b505050505081526020016001820160009054906101000a900473ffffffffffffffffffffffffffffffffffffffff1673ffffffffffffffffffffffffffffffffffffffff1673ffffffffffffffffffffffffffffffffffffffff16815250508152602001906001019061116b565b50505050905060005b81518110156113175760405180604001604052808383815181106112b5576112b4611eca565b5b60200260200101516000015181526020018473ffffffffffffffffffffffffffffffffffffffff168152508686806112ec906123eb565b9750815181106112ff576112fe611eca565b5b6020026020010181905250808060010191505061128e565b50505b5080806001019150506110ab565b5081935050505090565b606060028081111561134757611346611b5d565b5b6000803373ffffffffffffffffffffffffffffffffffffffff1673ffffffffffffffffffffffffffffffffffffffff16815260200190815260200160002060000160009054906101000a900460ff1660028111156113a8576113a7611b5d565b5b146113e8576040517f08c379a00000000000000000000000000000000000000000000000000000000081526004016113df90612397565b60405180910390fd5b6113f282336115b5565b611431576040517f08c379a00000000000000000000000000000000000000000000000000000000081526004016114289061247f565b60405180910390fd5b600160008373ffffffffffffffffffffffffffffffffffffffff1673ffffffffffffffffffffffffffffffffffffffff168152602001908152602001600020805480602002602001604051908101604052809291908181526020016000905b828210156115aa57838290600052602060002090600202016040518060400160405290816000820180546114c390612000565b80601f01602080910402602001604051908101604052809291908181526020018280546114ef90612000565b801561153c5780601f106115115761010080835404028352916020019161153c565b820191906000526020600020905b81548152906001019060200180831161151f57829003601f168201915b505050505081526020016001820160009054906101000a900473ffffffffffffffffffffffffffffffffffffffff1673ffffffffffffffffffffffffffffffffffffffff1673ffffffffffffffffffffffffffffffffffffffff168152505081526020019060010190611490565b505050509050919050565b6000806000808573ffffffffffffffffffffffffffffffffffffffff1673ffffffffffffffffffffffffffffffffffffffff16815260200190815260200160002060010180548060200260200160405190810160405280929190818152602001828054801561167957602002820191906000526020600020905b8160009054906101000a900473ffffffffffffffffffffffffffffffffffffffff1673ffffffffffffffffffffffffffffffffffffffff168152602001906001019080831161162f575b5050505050905060005b81518110156116f1578373ffffffffffffffffffffffffffffffffffffffff168282815181106116b6576116b5611eca565b5b602002602001015173ffffffffffffffffffffffffffffffffffffffff16036116e4576001925050506116f8565b8080600101915050611683565b5060009150505b92915050565b604051806040016040528060608152602001600073ffffffffffffffffffffffffffffffffffffffff1681525090565b6000604051905090565b600080fd5b600080fd5b600073ffffffffffffffffffffffffffffffffffffffff82169050919050565b600061176d82611742565b9050919050565b61177d81611762565b811461178857600080fd5b50565b60008135905061179a81611774565b92915050565b6000602082840312156117b6576117b5611738565b5b60006117c48482850161178b565b91505092915050565b600381106117da57600080fd5b50565b6000813590506117ec816117cd565b92915050565b60006020828403121561180857611807611738565b5b6000611816848285016117dd565b91505092915050565b600081519050919050565b600082825260208201905092915050565b6000819050602082019050919050565b600081519050919050565b600082825260208201905092915050565b60005b8381101561188557808201518184015260208101905061186a565b60008484015250505050565b6000601f19601f8301169050919050565b60006118ad8261184b565b6118b78185611856565b93506118c7818560208601611867565b6118d081611891565b840191505092915050565b6118e481611762565b82525050565b6000604083016000830151848203600086015261190782826118a2565b915050602083015161191c60208601826118db565b508091505092915050565b600061193383836118ea565b905092915050565b6000602082019050919050565b60006119538261181f565b61195d818561182a565b93508360208202850161196f8561183b565b8060005b858110156119ab578484038952815161198c8582611927565b94506119978361193b565b925060208a01995050600181019050611973565b50829750879550505050505092915050565b600060208201905081810360008301526119d78184611948565b905092915050565b600080fd5b600080fd5b7f4e487b7100000000000000000000000000000000000000000000000000000000600052604160045260246000fd5b611a2182611891565b810181811067ffffffffffffffff82111715611a4057611a3f6119e9565b5b80604052505050565b6000611a5361172e565b9050611a5f8282611a18565b919050565b600067ffffffffffffffff821115611a7f57611a7e6119e9565b5b611a8882611891565b9050602081019050919050565b82818337600083830152505050565b6000611ab7611ab284611a64565b611a49565b905082815260208101848484011115611ad357611ad26119e4565b5b611ade848285611a95565b509392505050565b600082601f830112611afb57611afa6119df565b5b8135611b0b848260208601611aa4565b91505092915050565b600060208284031215611b2a57611b29611738565b5b600082013567ffffffffffffffff811115611b4857611b4761173d565b5b611b5484828501611ae6565b91505092915050565b7f4e487b7100000000000000000000000000000000000000000000000000000000600052602160045260246000fd5b60038110611b9d57611b9c611b5d565b5b50565b6000819050611bae82611b8c565b919050565b6000611bbe82611ba0565b9050919050565b611bce81611bb3565b82525050565b6000602082019050611be96000830184611bc5565b92915050565b600081519050919050565b600082825260208201905092915050565b6000819050602082019050919050565b6000611c2783836118db565b60208301905092915050565b6000602082019050919050565b6000611c4b82611bef565b611c558185611bfa565b9350611c6083611c0b565b8060005b83811015611c91578151611c788882611c1b565b9750611c8383611c33565b925050600181019050611c64565b5085935050505092915050565b60006020820190508181036000830152611cb88184611c40565b905092915050565b600081519050919050565b600082825260208201905092915050565b6000819050602082019050919050565b60006040830160008301518482036000860152611d0982826118a2565b9150506020830151611d1e60208601826118db565b508091505092915050565b6000611d358383611cec565b905092915050565b6000602082019050919050565b6000611d5582611cc0565b611d5f8185611ccb565b935083602082028501611d7185611cdc565b8060005b85811015611dad5784840389528151611d8e8582611d29565b9450611d9983611d3d565b925060208a01995050600181019050611d75565b50829750879550505050505092915050565b60006020820190508181036000830152611dd98184611d4a565b905092915050565b600082825260208201905092915050565b7f4f6e6c792070617469656e747320616c6c6f7765640000000000000000000000600082015250565b6000611e28601583611de1565b9150611e3382611df2565b602082019050919050565b60006020820190508181036000830152611e5781611e1b565b9050919050565b7f546172676574206d757374206265206120646f63746f72000000000000000000600082015250565b6000611e94601783611de1565b9150611e9f82611e5e565b602082019050919050565b60006020820190508181036000830152611ec381611e87565b9050919050565b7f4e487b7100000000000000000000000000000000000000000000000000000000600052603260045260246000fd5b7f416c726561647920726567697374657265640000000000000000000000000000600082015250565b6000611f2f601283611de1565b9150611f3a82611ef9565b602082019050919050565b60006020820190508181036000830152611f5e81611f22565b9050919050565b7f496e76616c696420726f6c650000000000000000000000000000000000000000600082015250565b6000611f9b600c83611de1565b9150611fa682611f65565b602082019050919050565b60006020820190508181036000830152611fca81611f8e565b9050919050565b7f4e487b7100000000000000000000000000000000000000000000000000000000600052602260045260246000fd5b6000600282049050600182168061201857607f821691505b60208210810361202b5761202a611fd1565b5b50919050565b60008190508160005260206000209050919050565b60006020601f8301049050919050565b600082821b905092915050565b6000600883026120937fffffffffffffffffffffffffffffffffffffffffffffffffffffffffffffffff82612056565b61209d8683612056565b95508019841693508086168417925050509392505050565b6000819050919050565b6000819050919050565b60006120e46120df6120da846120b5565b6120bf565b6120b5565b9050919050565b6000819050919050565b6120fe836120c9565b61211261210a826120eb565b848454612063565b825550505050565b600090565b61212761211a565b6121328184846120f5565b505050565b5b818110156121565761214b60008261211f565b600181019050612138565b5050565b601f82111561219b5761216c81612031565b61217584612046565b81016020851015612184578190505b61219861219085612046565b830182612137565b50505b505050565b600082821c905092915050565b60006121be600019846008026121a0565b1980831691505092915050565b60006121d783836121ad565b9150826002028217905092915050565b6121f08261184b565b67ffffffffffffffff811115612209576122086119e9565b5b6122138254612000565b61221e82828561215a565b600060209050601f831160018114612251576000841561223f578287015190505b61224985826121cb565b8655506122b1565b601f19841661225f86612031565b60005b8281101561228757848901518255600182019150602085019450602081019050612262565b868310156122a457848901516122a0601f8916826121ad565b8355505b6001600288020188555050505b505050505050565b7f4e487b7100000000000000000000000000000000000000000000000000000000600052601160045260246000fd5b60006122f3826120b5565b91506122fe836120b5565b9250828203905081811115612316576123156122b9565b5b92915050565b7f4e487b7100000000000000000000000000000000000000000000000000000000600052603160045260246000fd5b7f4f6e6c7920646f63746f727320616c6c6f776564000000000000000000000000600082015250565b6000612381601483611de1565b915061238c8261234b565b602082019050919050565b600060208201905081810360008301526123b081612374565b9050919050565b60006123c2826120b5565b91506123cd836120b5565b92508282019050808211156123e5576123e46122b9565b5b92915050565b60006123f6826120b5565b91507fffffffffffffffffffffffffffffffffffffffffffffffffffffffffffffffff8203612428576124276122b9565b5b600182019050919050565b7f416363657373206e6f74206772616e7465640000000000000000000000000000600082015250565b6000612469601283611de1565b915061247482612433565b602082019050919050565b600060208201905081810360008301526124988161245c565b905091905056fea2646970667358221220d1f9a72a4114022c62a685df55069fc0903c9074bb01db2e33dea0903a64a66664736f6c634300081c0033",
  "linkReferences": {},
  "deployedLinkReferences": {}
}