{
  "_format": "hh-sol-artifact-1",
  "contractName": "MedicalReportSystem",
  "sourceName": "contracts/MedicalReport.sol",
  "abi": [
    {
      "anonymous": false,
      "inputs": [
        {
          "indexed": true,
          "internalType": "address",
          "name": "patient",
          "type": "address"
        },
        {
          "indexed": true,
          "internalType": "address",
          "name": "doctor",
          "type": "address"
        }
      ],
      "name": "AccessGranted",
      "type": "event"
    },
    {
      "anonymous": false,
      "inputs": [
        {
          "indexed": true,
          "internalType": "address",
          "name": "patient",
          "type": "address"
        },
        {
          "indexed": true,
          "internalType": "address",
          "name": "doctor",
          "type": "address"
        }
      ],
      "name": "AccessRevoked",
      "type": "event"
    },
    {
      "anonymous": false,
      "inputs": [
        {
          "indexed": true,
          "internalType": "address",
          "name": "patient",
          "type": "address"
        },
        {
          "indexed": false,
          "internalType": "uint256",
          "name": "reportId",
          "type": "uint256"
        }
      ],
      "name": "ReportUploaded",
      "type": "event"
    },
    {
      "anonymous": false,
      "inputs": [
        {
          "indexed": false,
          "internalType": "address",
          "name": "user",
          "type": "address"
        },
        {
          "indexed": false,
          "internalType": "enum MedicalReportSystem.Role",
          "name": "role",
          "type": "uint8"
        }
      ],
      "name": "UserRegistered",
      "type": "event"
    },
    {
      "inputs": [
        {
          "internalType": "address",
          "name": "",
          "type": "address"
        },
        {
          "internalType": "address",
          "name": "",
          "type": "address"
        }
      ],
      "name": "accessPermissions",
      "outputs": [
        {
          "internalType": "bool",
          "name": "",
          "type": "bool"
        }
      ],
      "stateMutability": "view",
      "type": "function"
    },
    {
      "inputs": [
        {
          "internalType": "uint256",
          "name": "_reportId",
          "type": "uint256"
        }
      ],
      "name": "getReport",
      "outputs": [
        {
          "components": [
            {
              "internalType": "uint256",
              "name": "id",
              "type": "uint256"
            },
            {
              "internalType": "address",
              "name": "patient",
              "type": "address"
            },
            {
              "internalType": "string",
              "name": "ipfsHash",
              "type": "string"
            },
            {
              "internalType": "uint256",
              "name": "timestamp",
              "type": "uint256"
            }
          ],
          "internalType": "struct MedicalReportSystem.Report",
          "name": "",
          "type": "tuple"
        }
      ],
      "stateMutability": "view",
      "type": "function"
    },
    {
      "inputs": [
        {
          "internalType": "address",
          "name": "_doctor",
          "type": "address"
        }
      ],
      "name": "grantAccess",
      "outputs": [],
      "stateMutability": "nonpayable",
      "type": "function"
    },
    {
      "inputs": [
        {
          "internalType": "enum MedicalReportSystem.Role",
          "name": "_role",
          "type": "uint8"
        }
      ],
      "name": "register",
      "outputs": [],
      "stateMutability": "nonpayable",
      "type": "function"
    },
    {
      "inputs": [],
      "name": "reportCount",
      "outputs": [
        {
          "internalType": "uint256",
          "name": "",
          "type": "uint256"
        }
      ],
      "stateMutability": "view",
      "type": "function"
    },
    {
      "inputs": [
        {
          "internalType": "uint256",
          "name": "",
          "type": "uint256"
        }
      ],
      "name": "reports",
      "outputs": [
        {
          "internalType": "uint256",
          "name": "id",
          "type": "uint256"
        },
        {
          "internalType": "address",
          "name": "patient",
          "type": "address"
        },
        {
          "internalType": "string",
          "name": "ipfsHash",
          "type": "string"
        },
        {
          "internalType": "uint256",
          "name": "timestamp",
          "type": "uint256"
        }
      ],
      "stateMutability": "view",
      "type": "function"
    },
    {
      "inputs": [
        {
          "internalType": "address",
          "name": "_doctor",
          "type": "address"
        }
      ],
      "name": "revokeAccess",
      "outputs": [],
      "stateMutability": "nonpayable",
      "type": "function"
    },
    {
      "inputs": [
        {
          "internalType": "string",
          "name": "_ipfsHash",
          "type": "string"
        }
      ],
      "name": "uploadReport",
      "outputs": [],
      "stateMutability": "nonpayable",
      "type": "function"
    },
    {
      "inputs": [
        {
          "internalType": "address",
          "name": "",
          "type": "address"
        },
        {
          "internalType": "uint256",
          "name": "",
          "type": "uint256"
        }
      ],
      "name": "userReports",
      "outputs": [
        {
          "internalType": "uint256",
          "name": "",
          "type": "uint256"
        }
      ],
      "stateMutability": "view",
      "type": "function"
    },
    {
      "inputs": [
        {
          "internalType": "address",
          "name": "",
          "type": "address"
        }
      ],
      "name": "users",
      "outputs": [
        {
          "internalType": "address",
          "name": "wallet",
          "type": "address"
        },
        {
          "internalType": "enum MedicalReportSystem.Role",
          "name": "role",
          "type": "uint8"
        }
      ],
      "stateMutability": "view",
      "type": "function"
    },
    {
      "inputs": [
        {
          "internalType": "address",
          "name": "_patient",
          "type": "address"
        }
      ],
      "name": "viewReports",
      "outputs": [
        {
          "internalType": "uint256[]",
          "name": "",
          "type": "uint256[]"
        }
      ],
      "stateMutability": "view",
      "type": "function"
    }
  ],
  "bytecode": "0x6080604052348015600f57600080fd5b50611c3d8061001f6000396000f3fe608060405234801561001057600080fd5b50600436106100a95760003560e01c806364b3b5251161007157806364b3b52514610164578063684b08341461019457806385e68531146101b0578063a87430ba146101cc578063c79726a6146101fd578063c942adf71461022d576100a9565b80630ae5e739146100ae578063185c6f84146100ca5780634e7f9b19146100e85780635a345e461461011857806361d689fa14610148575b600080fd5b6100c860048036038101906100c39190611079565b610260565b005b6100d26104bd565b6040516100df91906110bf565b60405180910390f35b61010260048036038101906100fd9190611106565b6104c3565b60405161010f9190611244565b60405180910390f35b610132600480360381019061012d9190611266565b6105ec565b60405161013f91906110bf565b60405180910390f35b610162600480360381019061015d91906112cb565b61061d565b005b61017e600480360381019061017991906112f8565b6107b6565b60405161018b9190611353565b60405180910390f35b6101ae60048036038101906101a991906114a3565b6107e5565b005b6101ca60048036038101906101c59190611079565b610a2e565b005b6101e660048036038101906101e19190611079565b610c8b565b6040516101f4929190611572565b60405180910390f35b61021760048036038101906102129190611079565b610cdc565b604051610224919061164a565b60405180910390f35b61024760048036038101906102429190611106565b610ef1565b60405161025794939291906116b6565b60405180910390f35b60016002811115610274576102736114fb565b5b600160003373ffffffffffffffffffffffffffffffffffffffff1673ffffffffffffffffffffffffffffffffffffffff16815260200190815260200160002060000160149054906101000a900460ff1660028111156102d6576102d56114fb565b5b14610316576040517f08c379a000000000000000000000000000000000000000000000000000000000815260040161030d9061174e565b60405180910390fd5b600280811115610329576103286114fb565b5b600160008373ffffffffffffffffffffffffffffffffffffffff1673ffffffffffffffffffffffffffffffffffffffff16815260200190815260200160002060000160149054906101000a900460ff16600281111561038b5761038a6114fb565b5b146103cb576040517f08c379a00000000000000000000000000000000000000000000000000000000081526004016103c2906117ba565b60405180910390fd5b6001600460003373ffffffffffffffffffffffffffffffffffffffff1673ffffffffffffffffffffffffffffffffffffffff16815260200190815260200160002060008373ffffffffffffffffffffffffffffffffffffffff1673ffffffffffffffffffffffffffffffffffffffff16815260200190815260200160002060006101000a81548160ff0219169083151502179055508073ffffffffffffffffffffffffffffffffffffffff163373ffffffffffffffffffffffffffffffffffffffff167f9f520b3bfc56d06f7065d10b4683b3f57ac8895d5026cd176dee95ce1454cb8d60405160405180910390a350565b60005481565b6104cb610fc9565b60026000838152602001908152602001600020604051806080016040529081600082015481526020016001820160009054906101000a900473ffffffffffffffffffffffffffffffffffffffff1673ffffffffffffffffffffffffffffffffffffffff1673ffffffffffffffffffffffffffffffffffffffff16815260200160028201805461055990611809565b80601f016020809104026020016040519081016040528092919081815260200182805461058590611809565b80156105d25780601f106105a7576101008083540402835291602001916105d2565b820191906000526020600020905b8154815290600101906020018083116105b557829003601f168201915b505050505081526020016003820154815250509050919050565b6003602052816000526040600020818154811061060857600080fd5b90600052602060002001600091509150505481565b60006002811115610631576106306114fb565b5b816002811115610644576106436114fb565b5b03610684576040517f08c379a000000000000000000000000000000000000000000000000000000000815260040161067b90611886565b60405180910390fd5b60405180604001604052803373ffffffffffffffffffffffffffffffffffffffff1681526020018260028111156106be576106bd6114fb565b5b815250600160003373ffffffffffffffffffffffffffffffffffffffff1673ffffffffffffffffffffffffffffffffffffffff16815260200190815260200160002060008201518160000160006101000a81548173ffffffffffffffffffffffffffffffffffffffff021916908373ffffffffffffffffffffffffffffffffffffffff16021790555060208201518160000160146101000a81548160ff02191690836002811115610772576107716114fb565b5b02179055509050507f8e18574f8a7333e6a87112742a55853a643e2f0550f4e1a3a2c3f1bb2994441d33826040516107ab929190611572565b60405180910390a150565b60046020528160005260406000206020528060005260406000206000915091509054906101000a900460ff1681565b600160028111156107f9576107f86114fb565b5b600160003373ffffffffffffffffffffffffffffffffffffffff1673ffffffffffffffffffffffffffffffffffffffff16815260200190815260200160002060000160149054906101000a900460ff16600281111561085b5761085a6114fb565b5b1461089b576040517f08c379a00000000000000000000000000000000000000000000000000000000081526004016108929061174e565b60405180910390fd5b6000808154809291906108ad906118d5565b9190505550604051806080016040528060005481526020013373ffffffffffffffffffffffffffffffffffffffff1681526020018281526020014281525060026000805481526020019081526020016000206000820151816000015560208201518160010160006101000a81548173ffffffffffffffffffffffffffffffffffffffff021916908373ffffffffffffffffffffffffffffffffffffffff16021790555060408201518160020190816109659190611ac9565b5060608201518160030155905050600360003373ffffffffffffffffffffffffffffffffffffffff1673ffffffffffffffffffffffffffffffffffffffff16815260200190815260200160002060005490806001815401808255809150506001900390600052602060002001600090919091909150553373ffffffffffffffffffffffffffffffffffffffff167fd5f03fd95a31517e472ec5fec3b5435f7c876656ccc3900188d0f70e9675a069600054604051610a2391906110bf565b60405180910390a250565b60016002811115610a4257610a416114fb565b5b600160003373ffffffffffffffffffffffffffffffffffffffff1673ffffffffffffffffffffffffffffffffffffffff16815260200190815260200160002060000160149054906101000a900460ff166002811115610aa457610aa36114fb565b5b14610ae4576040517f08c379a0000000000000000000000000000000000000000000000000000000008152600401610adb9061174e565b60405180910390fd5b600280811115610af757610af66114fb565b5b600160008373ffffffffffffffffffffffffffffffffffffffff1673ffffffffffffffffffffffffffffffffffffffff16815260200190815260200160002060000160149054906101000a900460ff166002811115610b5957610b586114fb565b5b14610b99576040517f08c379a0000000000000000000000000000000000000000000000000000000008152600401610b90906117ba565b60405180910390fd5b6000600460003373ffffffffffffffffffffffffffffffffffffffff1673ffffffffffffffffffffffffffffffffffffffff16815260200190815260200160002060008373ffffffffffffffffffffffffffffffffffffffff1673ffffffffffffffffffffffffffffffffffffffff16815260200190815260200160002060006101000a81548160ff0219169083151502179055508073ffffffffffffffffffffffffffffffffffffffff163373ffffffffffffffffffffffffffffffffffffffff167f825c8be24eb0df19500f63e86c29e7d0d951e73056b889b891d85e40938d9b6e60405160405180910390a350565b60016020528060005260406000206000915090508060000160009054906101000a900473ffffffffffffffffffffffffffffffffffffffff16908060000160149054906101000a900460ff16905082565b6060600280811115610cf157610cf06114fb565b5b600160003373ffffffffffffffffffffffffffffffffffffffff1673ffffffffffffffffffffffffffffffffffffffff16815260200190815260200160002060000160149054906101000a900460ff166002811115610d5357610d526114fb565b5b14610d93576040517f08c379a0000000000000000000000000000000000000000000000000000000008152600401610d8a906117ba565b60405180910390fd5b600460008373ffffffffffffffffffffffffffffffffffffffff1673ffffffffffffffffffffffffffffffffffffffff16815260200190815260200160002060003373ffffffffffffffffffffffffffffffffffffffff1673ffffffffffffffffffffffffffffffffffffffff16815260200190815260200160002060009054906101000a900460ff16610e5c576040517f08c379a0000000000000000000000000000000000000000000000000000000008152600401610e5390611be7565b60405180910390fd5b600360008373ffffffffffffffffffffffffffffffffffffffff1673ffffffffffffffffffffffffffffffffffffffff168152602001908152602001600020805480602002602001604051908101604052809291908181526020018280548015610ee557602002820191906000526020600020905b815481526020019060010190808311610ed1575b50505050509050919050565b60026020528060005260406000206000915090508060000154908060010160009054906101000a900473ffffffffffffffffffffffffffffffffffffffff1690806002018054610f4090611809565b80601f0160208091040260200160405190810160405280929190818152602001828054610f6c90611809565b8015610fb95780601f10610f8e57610100808354040283529160200191610fb9565b820191906000526020600020905b815481529060010190602001808311610f9c57829003601f168201915b5050505050908060030154905084565b604051806080016040528060008152602001600073ffffffffffffffffffffffffffffffffffffffff16815260200160608152602001600081525090565b6000604051905090565b600080fd5b600080fd5b600073ffffffffffffffffffffffffffffffffffffffff82169050919050565b60006110468261101b565b9050919050565b6110568161103b565b811461106157600080fd5b50565b6000813590506110738161104d565b92915050565b60006020828403121561108f5761108e611011565b5b600061109d84828501611064565b91505092915050565b6000819050919050565b6110b9816110a6565b82525050565b60006020820190506110d460008301846110b0565b92915050565b6110e3816110a6565b81146110ee57600080fd5b50565b600081359050611100816110da565b92915050565b60006020828403121561111c5761111b611011565b5b600061112a848285016110f1565b91505092915050565b61113c816110a6565b82525050565b61114b8161103b565b82525050565b600081519050919050565b600082825260208201905092915050565b60005b8381101561118b578082015181840152602081019050611170565b60008484015250505050565b6000601f19601f8301169050919050565b60006111b382611151565b6111bd818561115c565b93506111cd81856020860161116d565b6111d681611197565b840191505092915050565b60006080830160008301516111f96000860182611133565b50602083015161120c6020860182611142565b506040830151848203604086015261122482826111a8565b91505060608301516112396060860182611133565b508091505092915050565b6000602082019050818103600083015261125e81846111e1565b905092915050565b6000806040838503121561127d5761127c611011565b5b600061128b85828601611064565b925050602061129c858286016110f1565b9150509250929050565b600381106112b357600080fd5b50565b6000813590506112c5816112a6565b92915050565b6000602082840312156112e1576112e0611011565b5b60006112ef848285016112b6565b91505092915050565b6000806040838503121561130f5761130e611011565b5b600061131d85828601611064565b925050602061132e85828601611064565b9150509250929050565b60008115159050919050565b61134d81611338565b82525050565b60006020820190506113686000830184611344565b92915050565b600080fd5b600080fd5b7f4e487b7100000000000000000000000000000000000000000000000000000000600052604160045260246000fd5b6113b082611197565b810181811067ffffffffffffffff821117156113cf576113ce611378565b5b80604052505050565b60006113e2611007565b90506113ee82826113a7565b919050565b600067ffffffffffffffff82111561140e5761140d611378565b5b61141782611197565b9050602081019050919050565b82818337600083830152505050565b6000611446611441846113f3565b6113d8565b90508281526020810184848401111561146257611461611373565b5b61146d848285611424565b509392505050565b600082601f83011261148a5761148961136e565b5b813561149a848260208601611433565b91505092915050565b6000602082840312156114b9576114b8611011565b5b600082013567ffffffffffffffff8111156114d7576114d6611016565b5b6114e384828501611475565b91505092915050565b6114f58161103b565b82525050565b7f4e487b7100000000000000000000000000000000000000000000000000000000600052602160045260246000fd5b6003811061153b5761153a6114fb565b5b50565b600081905061154c8261152a565b919050565b600061155c8261153e565b9050919050565b61156c81611551565b82525050565b600060408201905061158760008301856114ec565b6115946020830184611563565b9392505050565b600081519050919050565b600082825260208201905092915050565b6000819050602082019050919050565b60006115d38383611133565b60208301905092915050565b6000602082019050919050565b60006115f78261159b565b61160181856115a6565b935061160c836115b7565b8060005b8381101561163d57815161162488826115c7565b975061162f836115df565b925050600181019050611610565b5085935050505092915050565b6000602082019050818103600083015261166481846115ec565b905092915050565b600082825260208201905092915050565b600061168882611151565b611692818561166c565b93506116a281856020860161116d565b6116ab81611197565b840191505092915050565b60006080820190506116cb60008301876110b0565b6116d860208301866114ec565b81810360408301526116ea818561167d565b90506116f960608301846110b0565b95945050505050565b7f4e6f7420612070617469656e7400000000000000000000000000000000000000600082015250565b6000611738600d8361166c565b915061174382611702565b602082019050919050565b600060208201905081810360008301526117678161172b565b9050919050565b7f4e6f74206120646f63746f720000000000000000000000000000000000000000600082015250565b60006117a4600c8361166c565b91506117af8261176e565b602082019050919050565b600060208201905081810360008301526117d381611797565b9050919050565b7f4e487b7100000000000000000000000000000000000000000000000000000000600052602260045260246000fd5b6000600282049050600182168061182157607f821691505b602082108103611834576118336117da565b5b50919050565b7f496e76616c696420726f6c650000000000000000000000000000000000000000600082015250565b6000611870600c8361166c565b915061187b8261183a565b602082019050919050565b6000602082019050818103600083015261189f81611863565b9050919050565b7f4e487b7100000000000000000000000000000000000000000000000000000000600052601160045260246000fd5b60006118e0826110a6565b91507fffffffffffffffffffffffffffffffffffffffffffffffffffffffffffffffff8203611912576119116118a6565b5b600182019050919050565b60008190508160005260206000209050919050565b60006020601f8301049050919050565b600082821b905092915050565b60006008830261197f7fffffffffffffffffffffffffffffffffffffffffffffffffffffffffffffffff82611942565b6119898683611942565b95508019841693508086168417925050509392505050565b6000819050919050565b60006119c66119c16119bc846110a6565b6119a1565b6110a6565b9050919050565b6000819050919050565b6119e0836119ab565b6119f46119ec826119cd565b84845461194f565b825550505050565b600090565b611a096119fc565b611a148184846119d7565b505050565b5b81811015611a3857611a2d600082611a01565b600181019050611a1a565b5050565b601f821115611a7d57611a4e8161191d565b611a5784611932565b81016020851015611a66578190505b611a7a611a7285611932565b830182611a19565b50505b505050565b600082821c905092915050565b6000611aa060001984600802611a82565b1980831691505092915050565b6000611ab98383611a8f565b9150826002028217905092915050565b611ad282611151565b67ffffffffffffffff811115611aeb57611aea611378565b5b611af58254611809565b611b00828285611a3c565b600060209050601f831160018114611b335760008415611b21578287015190505b611b2b8582611aad565b865550611b93565b601f198416611b418661191d565b60005b82811015611b6957848901518255600182019150602085019450602081019050611b44565b86831015611b865784890151611b82601f891682611a8f565b8355505b6001600288020188555050505b505050505050565b7f416363657373206e6f74206772616e7465640000000000000000000000000000600082015250565b6000611bd160128361166c565b9150611bdc82611b9b565b602082019050919050565b60006020820190508181036000830152611c0081611bc4565b905091905056fea2646970667358221220b3e00d87a89ba0d068407d59bac62558bf515bf909ea97198bc85880b6664dc064736f6c634300081c0033",
  "linkReferences": {},
  "deployedLinkReferences": {}
}