{
  "_format": "hh-sol-artifact-1",
  "contractName": "MedicalReport",
  "sourceName": "contracts/MedicalReport.sol",
  "abi": [
    {
      "inputs": [],
      "stateMutability": "nonpayable",
      "type": "constructor"
    },
    {
      "inputs": [
        {
          "internalType": "address",
          "name": "patient",
          "type": "address"
        }
      ],
      "name": "getReports",
      "outputs": [
        {
          "internalType": "string[]",
          "name": "",
          "type": "string[]"
        }
      ],
      "stateMutability": "view",
      "type": "function"
    },
    {
      "inputs": [],
      "name": "owner",
      "outputs": [
        {
          "internalType": "address",
          "name": "",
          "type": "address"
        }
      ],
      "stateMutability": "view",
      "type": "function"
    },
    {
      "inputs": [
        {
          "internalType": "address",
          "name": "",
          "type": "address"
        },
        {
          "internalType": "uint256",
          "name": "",
          "type": "uint256"
        }
      ],
      "name": "patientReports",
      "outputs": [
        {
          "internalType": "uint256",
          "name": "",
          "type": "uint256"
        }
      ],
      "stateMutability": "view",
      "type": "function"
    },
    {
      "inputs": [
        {
          "internalType": "uint256",
          "name": "",
          "type": "uint256"
        }
      ],
      "name": "reports",
      "outputs": [
        {
          "internalType": "string",
          "name": "cid",
          "type": "string"
        },
        {
          "internalType": "address",
          "name": "patient",
          "type": "address"
        },
        {
          "internalType": "address",
          "name": "doctor",
          "type": "address"
        }
      ],
      "stateMutability": "view",
      "type": "function"
    },
    {
      "inputs": [
        {
          "internalType": "string",
          "name": "cid",
          "type": "string"
        },
        {
          "internalType": "address",
          "name": "patient",
          "type": "address"
        }
      ],
      "name": "uploadReport",
      "outputs": [],
      "stateMutability": "nonpayable",
      "type": "function"
    }
  ],
  "bytecode": "0x6080604052348015600f57600080fd5b50336000806101000a81548173ffffffffffffffffffffffffffffffffffffffff021916908373ffffffffffffffffffffffffffffffffffffffff160217905550610fa68061005f6000396000f3fe608060405234801561001057600080fd5b50600436106100575760003560e01c80633d3d71821461005c5780638da5cb5b1461008c578063c942adf7146100aa578063dced6214146100dc578063fb986606146100f8575b600080fd5b610076600480360381019061007191906106e3565b610128565b6040516100839190610862565b60405180910390f35b610094610319565b6040516100a19190610893565b60405180910390f35b6100c460048036038101906100bf91906108e4565b61033d565b6040516100d39392919061095b565b60405180910390f35b6100f660048036038101906100f19190610ace565b61043f565b005b610112600480360381019061010d9190610b2a565b610640565b60405161011f9190610b79565b60405180910390f35b60606000600260008473ffffffffffffffffffffffffffffffffffffffff1673ffffffffffffffffffffffffffffffffffffffff1681526020019081526020016000208054806020026020016040519081016040528092919081815260200182805480156101b557602002820191906000526020600020905b8154815260200190600101908083116101a1575b505050505090506000815167ffffffffffffffff8111156101d9576101d86109a3565b5b60405190808252806020026020018201604052801561020c57816020015b60608152602001906001900390816101f75790505b50905060005b825181101561030e5760018382815181106102305761022f610b94565b5b60200260200101518154811061024957610248610b94565b5b9060005260206000209060030201600001805461026590610bf2565b80601f016020809104026020016040519081016040528092919081815260200182805461029190610bf2565b80156102de5780601f106102b3576101008083540402835291602001916102de565b820191906000526020600020905b8154815290600101906020018083116102c157829003601f168201915b50505050508282815181106102f6576102f5610b94565b5b60200260200101819052508080600101915050610212565b508092505050919050565b60008054906101000a900473ffffffffffffffffffffffffffffffffffffffff1681565b6001818154811061034d57600080fd5b906000526020600020906003020160009150905080600001805461037090610bf2565b80601f016020809104026020016040519081016040528092919081815260200182805461039c90610bf2565b80156103e95780601f106103be576101008083540402835291602001916103e9565b820191906000526020600020905b8154815290600101906020018083116103cc57829003601f168201915b5050505050908060010160009054906101000a900473ffffffffffffffffffffffffffffffffffffffff16908060020160009054906101000a900473ffffffffffffffffffffffffffffffffffffffff16905083565b600073ffffffffffffffffffffffffffffffffffffffff163373ffffffffffffffffffffffffffffffffffffffff16036104ae576040517f08c379a00000000000000000000000000000000000000000000000000000000081526004016104a590610c6f565b60405180910390fd5b600160405180606001604052808481526020018373ffffffffffffffffffffffffffffffffffffffff1681526020013373ffffffffffffffffffffffffffffffffffffffff16815250908060018154018082558091505060019003906000526020600020906003020160009091909190915060008201518160000190816105359190610e3b565b5060208201518160010160006101000a81548173ffffffffffffffffffffffffffffffffffffffff021916908373ffffffffffffffffffffffffffffffffffffffff16021790555060408201518160020160006101000a81548173ffffffffffffffffffffffffffffffffffffffff021916908373ffffffffffffffffffffffffffffffffffffffff1602179055505050600260008273ffffffffffffffffffffffffffffffffffffffff1673ffffffffffffffffffffffffffffffffffffffff168152602001908152602001600020600180805490506106169190610f3c565b90806001815401808255809150506001900390600052602060002001600090919091909150555050565b6002602052816000526040600020818154811061065c57600080fd5b90600052602060002001600091509150505481565b6000604051905090565b600080fd5b600080fd5b600073ffffffffffffffffffffffffffffffffffffffff82169050919050565b60006106b082610685565b9050919050565b6106c0816106a5565b81146106cb57600080fd5b50565b6000813590506106dd816106b7565b92915050565b6000602082840312156106f9576106f861067b565b5b6000610707848285016106ce565b91505092915050565b600081519050919050565b600082825260208201905092915050565b6000819050602082019050919050565b600081519050919050565b600082825260208201905092915050565b60005b8381101561077657808201518184015260208101905061075b565b60008484015250505050565b6000601f19601f8301169050919050565b600061079e8261073c565b6107a88185610747565b93506107b8818560208601610758565b6107c181610782565b840191505092915050565b60006107d88383610793565b905092915050565b6000602082019050919050565b60006107f882610710565b610802818561071b565b9350836020820285016108148561072c565b8060005b85811015610850578484038952815161083185826107cc565b945061083c836107e0565b925060208a01995050600181019050610818565b50829750879550505050505092915050565b6000602082019050818103600083015261087c81846107ed565b905092915050565b61088d816106a5565b82525050565b60006020820190506108a86000830184610884565b92915050565b6000819050919050565b6108c1816108ae565b81146108cc57600080fd5b50565b6000813590506108de816108b8565b92915050565b6000602082840312156108fa576108f961067b565b5b6000610908848285016108cf565b91505092915050565b600082825260208201905092915050565b600061092d8261073c565b6109378185610911565b9350610947818560208601610758565b61095081610782565b840191505092915050565b600060608201905081810360008301526109758186610922565b90506109846020830185610884565b6109916040830184610884565b949350505050565b600080fd5b600080fd5b7f4e487b7100000000000000000000000000000000000000000000000000000000600052604160045260246000fd5b6109db82610782565b810181811067ffffffffffffffff821117156109fa576109f96109a3565b5b80604052505050565b6000610a0d610671565b9050610a1982826109d2565b919050565b600067ffffffffffffffff821115610a3957610a386109a3565b5b610a4282610782565b9050602081019050919050565b82818337600083830152505050565b6000610a71610a6c84610a1e565b610a03565b905082815260208101848484011115610a8d57610a8c61099e565b5b610a98848285610a4f565b509392505050565b600082601f830112610ab557610ab4610999565b5b8135610ac5848260208601610a5e565b91505092915050565b60008060408385031215610ae557610ae461067b565b5b600083013567ffffffffffffffff811115610b0357610b02610680565b5b610b0f85828601610aa0565b9250506020610b20858286016106ce565b9150509250929050565b60008060408385031215610b4157610b4061067b565b5b6000610b4f858286016106ce565b9250506020610b60858286016108cf565b9150509250929050565b610b73816108ae565b82525050565b6000602082019050610b8e6000830184610b6a565b92915050565b7f4e487b7100000000000000000000000000000000000000000000000000000000600052603260045260246000fd5b7f4e487b7100000000000000000000000000000000000000000000000000000000600052602260045260246000fd5b60006002820490506001821680610c0a57607f821691505b602082108103610c1d57610c1c610bc3565b5b50919050565b7f496e76616c69642073656e646572000000000000000000000000000000000000600082015250565b6000610c59600e83610911565b9150610c6482610c23565b602082019050919050565b60006020820190508181036000830152610c8881610c4c565b9050919050565b60008190508160005260206000209050919050565b60006020601f8301049050919050565b600082821b905092915050565b600060088302610cf17fffffffffffffffffffffffffffffffffffffffffffffffffffffffffffffffff82610cb4565b610cfb8683610cb4565b95508019841693508086168417925050509392505050565b6000819050919050565b6000610d38610d33610d2e846108ae565b610d13565b6108ae565b9050919050565b6000819050919050565b610d5283610d1d565b610d66610d5e82610d3f565b848454610cc1565b825550505050565b600090565b610d7b610d6e565b610d86818484610d49565b505050565b5b81811015610daa57610d9f600082610d73565b600181019050610d8c565b5050565b601f821115610def57610dc081610c8f565b610dc984610ca4565b81016020851015610dd8578190505b610dec610de485610ca4565b830182610d8b565b50505b505050565b600082821c905092915050565b6000610e1260001984600802610df4565b1980831691505092915050565b6000610e2b8383610e01565b9150826002028217905092915050565b610e448261073c565b67ffffffffffffffff811115610e5d57610e5c6109a3565b5b610e678254610bf2565b610e72828285610dae565b600060209050601f831160018114610ea55760008415610e93578287015190505b610e9d8582610e1f565b865550610f05565b601f198416610eb386610c8f565b60005b82811015610edb57848901518255600182019150602085019450602081019050610eb6565b86831015610ef85784890151610ef4601f891682610e01565b8355505b6001600288020188555050505b505050505050565b7f4e487b7100000000000000000000000000000000000000000000000000000000600052601160045260246000fd5b6000610f47826108ae565b9150610f52836108ae565b9250828203905081811115610f6a57610f69610f0d565b5b9291505056fea2646970667358221220b565bcac2b86bd29c7f761465ee3b740a37e075245efe39e04d676783726e92c64736f6c634300081c0033",
  "linkReferences": {},
  "deployedLinkReferences": {}
}